:100000000C9469100C9491100C9491100C94911014
:100010000C9491100C9491100C9491100C949110DC
:100020000C9491100C9491100C9491100C949110CC
:100030000C9491100C9491100C9491100C949110BC
:100040000C9491100C94BB260C9491100C9491106C
:100050000C9491100C9491100C9491100C947E259A
:100060000C9491100C9491100C9491100C9491108C
:100070000C9491100C9491100C9491100C9491107C
:100080000C94C8250C9491100C9491100C94911020
:100090000C9491100C9491100C9491100C9491105C
:1000A0000C9491100C9491100C9491100A7A6F7525
:1000B000722063686F696365206F662072756E6574
:1000C000730777696C6C2073656C65637420646971
:1000D00066666572656E740C636F75727365732EF8
:1000E0002E2E20736F6D65206172650D65617369D9
:1000F0006572207468616E206F7468657273210781
:10010000716F6D7065746520696E20746865207408
:100110007269616C7306746F2073656520686F7710
:100120002066617220796F752063616E0B6765745C
:1001300020616E6420796F7520636F756C64206236
:10014000651974686174206368616D70696F6E21F0
:100150000378616368207965617220746865207036
:10016000656F706C65206F66007468652076696CD9
:100170006C6167652063686F6F73652061206E65D1
:10018000770C6368616D70696F6E20746F20707298
:100190006F746563740F7468656D2066726F6D208F
:1001A0006A737461726F6B2E0E100000E0E010F045
:1001B000FCFC02FE29FF7DFF69FFB9FF01FF82FE03
:1001C0007CFC8080000002020507080F141F001F3E
:1001D0001F1F071F071F071F001F011F1C1F0707E7
:1001E0000000000080807CFC82FE01FFB9FF69FFF7
:1001F0007DFF29FF02FEFCFC10F0E0E000000000A3
:1002000007071C1F011F001F071F071F071F1F1FB6
:10021000001F141F080F050702020E100000F0F067
:1002200008F87CFC02FE29FF7DFF69FFB9FF01FF92
:1002300042FEBCBC000000000101020304071A1FBB
:10024000001F1F1F071F071F1F1F001F031F181F4F
:100250000F0F000000000000BCBC42FE01FFB9FF10
:1002600069FF7DFF29FF02FE7CFC08F8F0F000002A
:1002700000000F0F181F031F001F1F1F071F071F5E
:100280001F1F001F1A1F0407020301010E108080A8
:1002900078F804FC3CFC02FE29FF7DFF69FFB9FFF2
:1002A00001FFC2FE3C3C000000000000010102030F
:1002B0001D1F001F071F071F071F1F1F001F061FEF
:1002C000111F1E1E0000000000003C3CC2FE01FF8A
:1002D000B9FF69FF7DFF29FF02FE3CFC04FC78F8B2
:1002E000808000001E1E111F061F001F1F1F071FFA
:1002F000071F071F001F1D1F0203010100000E1032
:100300000000F0F008F87CFC02FE29FF7DFF69FF89
:10031000B9FF01FF42FEBCBC000000000101020366
:1003200004071A1F001F1F1F071F071F1F1F001F83
:10033000031F181F0F0F000000000000BCBC42FE8E
:1003400001FFB9FF69FF7DFF29FF02FE7CFC08F871
:10035000F0F0000000000F0F181F031F001F1F1FE9
:10036000071F071F1F1F001F1A1F04070203010199
:100370000E100000E0E010F0F8F804FC52FEFAFE67
:10038000D2FE72FE02FE84FC7878000000000202B9
:100390000507080F141F001F1E1F061F061F1F1F23
:1003A000001F061F111F1E1E0000000000007878AD
:1003B00084FC02FE72FED2FEFAFE52FE04FCF8F845
:1003C00010F0E0E0000000001E1E111F061F001FBD
:1003D0001F1F061F061F1E1F001F141F080F0507E3
:1003E00002020E100000F0F008F87CFC04FC52FE43
:1003F000FAFED2FE72FE02FE04FCF8F800000000D5
:100400000101020304071A1F001F1E1F061F061FFB
:100410001F1F001F031F181F0F0F00000000000008
:10042000F8F804FC02FE72FED2FEFAFE52FE04FC54
:100430007CFC08F8F0F0000000000F0F181F031FED
:10044000001F1F1F061F061F1E1F001F1A1F040765
:10045000020301010E100000F0F008F87CFC02FE1F
:1004600029FF7DFF69FFB9FF01FF42FEBCBC000010
:1004700000000101020304071A1F001F1F1F071FAE
:10048000071F1F1F001F031F181F0F0F0000000072
:100490000000BCBC42FE01FFB9FF69FF7DFF29FFE0
:1004A00002FE7CFC08F8F0F0000000000F0F181F9F
:1004B000031F001F1F1F071F071F1F1F001F1A1FDB
:1004C0000407020301010F100002000000000000F9
:1004D00000000000020400000810000000000000FE
:1004E00000000000200002050200000000000000E3
:1004F0000002050A04081428100000000000000093
:10050000002050200F100000020600000000000034
:1005100000060A0C00000C14180000000000001077
:10052000281000000002050906000000000006096E
:1005300015120C0C122A2438000000001028542830
:1005400010000F1000000C121A04000000040A1220
:10055000120C00000609110A0400000008142212FF
:100560000C00000C92AD251A0400040A152D2D1262
:100570000C0609162E150A040008142A5D2D120C0B
:100580000F10000080982424120C00081422120C72
:1005900000000304080906000C1221120C000100DF
:1005A00000805864DA5A2D120C942A5D2D920C03A7
:1005B000040B1716090E122D5E2D120D02010F10DD
:1005C00000C0201824040202020A040408F00000FB
:1005D000030408081420202021120C020100C0206E
:1005E000D8E4DAFAFDFDFDF5FAFAF408F003040B9D
:1005F00017172B5F5F5F5E2D130D02010C100000BB
:100600000000806010103020C000000000000102D7
:10061000020404020100000000806090E8E8C8D0F5
:1006200020C0000000010205050B0B0502010B10A4
:10063000000000000000C02020C0000000000000FA
:100640000000010100000000000000C020D0D02008
:10065000C0000000000000010202010002070200C9
:100660000000000000000002070E04081C38100003
:10067000000000000000002070200002070F0600AC
:1006800000000000070F1F1E1C0E1E3E3C3800001D
:10069000000010387C381000000C9EBF3F1E040084
:1006A000040E1F3F3F1E0C060F1F3F1F0E040008C5
:1006B0001C3E7F3F1E0C0080D8FCFE7E3F1E0C9C23
:1006C0003E7F3F9E0C03070F1F1F0F0E1E3F7F3FF5
:1006D0001E0D0301C0E0F8FCFEFEFFFFFFFFFEFE63
:1006E000FCF8F003070F1F1F3F7F7F7F7F3F1F0F27
:1006F000030100000080E0F0F8F8F8F0E0C000002E
:1007000000010307070F0F0703010000000000C0EE
:10071000E0F0F0E0C0000000000000010303010071
:100720000808FF81A58181A581FF0808FF8185B5A3
:10073000959D81FF0C0C7C7C82FE01FF11FF09FF5F
:1007400002FE02FE01FF01FF01FF82FE7C7C000031
:100750000000010102030407080F080F0407020349
:100760000101000000001010000000C0C0E020F0F7
:1007700010F890F808FC08FC10F808FC04FE94FE41
:1007800044FE387E023F0002001E1E3F217F4CFFC8
:1007900056FF5EFF4CFF217F247F207F103F0C1F00
:1007A000030F0003000000000C0CF8F804FCFAFE34
:1007B000CDFFBDFFCDFFFDFF7DFF7DFF3AFE04FCB9
:1007C000F8F8010102030507080F090F080F090FC8
:1007D000080F0A0F050702030101F8F804FC3AFEAE
:1007E0007DFF7DFFFDFFCDFFBDFFCDFFFAFE04FCC9
:1007F000F8F80101020305070A0F080F090F080F97
:10080000090F080F0507020301010C0C004C4CFEF8
:1008100090FC4CFEB6FF9EFF9EFFB6FF4CFE90FC88
:100820004CFE004C0000000C040F030700030207FD
:10083000020700030307040F000C00000C0C00006B
:1008400000C0C0F898FC6CFE5CFE6CFEBCFED8FCE0
:10085000C0F800C000000007070F090F060F090FBE
:10086000010F030F090F060F090F070F0007000004
:1008700000C0C0F8D8FCBCFE6CFE5CFE6CFE98FCB0
:10088000C0F800C000000007070F090F060F090F8E
:10089000030F010F090F060F090F070F0007D5F00F
:1008A0008D14A1C881CFD9F1AF20001410070387A0
:1008B000C3E244A347A347A703070387C3E244A3B4
:1008C00047050204010004020502050200050204B6
:1008D00001000402051A2400000000FEFCDC2C3696
:1008E000F616EE767AFA7A7AF2E60E16F6362CDC00
:1008F000FC00181810939716D595D694C38FC68D03
:10090000C78EC391D090D191D596D700000000FF3B
:10091000FF00FF6262626A62626A62626AE2622A7F
:10092000A2A2AAA26200000000FFFF00FFFFFFE3F7
:1009300063636341E3F7FF01FC0300000000000074
:100940000000000F0F000F0F0708050F0503040339
:100950000F000F00000000000004081E3F211E22AF
:100960003E3F203229253212253F1A0C2A3F2C17F0
:10097000253D181E3F251823393D231A252D1A061B
:100980002F291E030811000533100301FF0103FE88
:100990000101FE01FF21211E00000002012121DED4
:1009A0000000000301FF010301FF2121DE0001FF20
:1009B0000100FE2121FE00FF00001E31C7000407D8
:1009C0000400030404030407040000000000020400
:1009D00004040300000000040704000407040003EB
:1009E00004040704000700000700070404060403CA
:1009F0000808003C3C7E42FF52FF5AFF42FF3C7E0B
:100A0000003C0000003C3C7E42FF52FF3C7E003C2C
:100A1000000000000000003C00FF3CFF003C000024
:100A200000000000003C3C7E5AFF42FF3C7E003C40
:100A300000000E00000000000C0C7C7C82FE01FF18
:100A400011FF09FF02FE02FE01FF01FF01FF82FE0E
:100A50007C7C00000000010102030407080F080F5E
:100A6000040702030101000000000500010000006E
:100A7000020803032610FCFC02FEF9FF05FF05FF38
:100A80000DFF05FF05FF05FF0DFF05FF05FF05FF36
:100A90000DFF05FF05FF05FF0DFF0DFF0DFF0DFF0E
:100AA00005FF05FF05FF0DFF05FF05FF05FF0DFF16
:100AB00005FF05FF05FF0DFF05FF05FFF9FF02FE1E
:100AC000FCFC03030407090F0A0F0A0F0B0F0A0FA0
:100AD0000A0F0A0F0B0F0A0F0A0F0A0F0B0F0A0F4C
:100AE0000A0F0A0F0B0F0B0F0B0F0B0F0A0F0A0F3A
:100AF0000A0F0B0F0A0F0A0F0A0F0B0F0A0F0A0F2C
:100B00000A0F0B0F0A0F0A0F090F0407030380C017
:100B1000E0E0E0F0FCFEFFFEFCE0E0E0E0E0E0E032
:100B2000E0E0E0E0E0C0C0E0E0E0E0E0E0E0E0E005
:100B3000E0E0E0E0E0C0C0E0E0E0E0E0C080000035
:100B400080C0E0E0E0E0E0E0E0E0E0E0E0C0C0E065
:100B5000E0E0E0E0C0E0E0E0E0E0C0E0E0E0E0E0D5
:100B6000E0E0E0C0C0E0E0E0E0E0E0E0E0C0800025
:100B70000003070F0FFFFFFFFFFFFF7F0F07FFFFC0
:100B8000FFFFFFFFFFFFFFFFFFFFFFFFFFFFFFFF75
:100B9000FFFFFFFFFFFFFFFFFFFFFFFFFFFF07005C
:100BA0000000FFFFFFFFFFFFFF0FFFFFFFFFFFFF43
:100BB000FFFFFFFFFFFFFFFFFFFFFFFFFFFFFFFF45
:100BC000FFFFFFFFFF77FFFFFFFFFFFFFFFFFFFFBD
:100BD0007F3F0000000000FFFFFFFFFFFF0000005D
:100BE00001FFFFFFFFFF7FFFFFFFE3FFFFFFFFFFAF
:100BF0001F3F7FFFFFFFFF7F3F0F071F7FFFFFFFAD
:100C0000FCE08000037FFFFFFFFFFF80FFFFFFFF8F
:100C1000FF3F070F1F3F7FFFFFFF7F3F1F0F0307B0
:100C20000F1F3F7FFFFEF0E041FFFFFFFFFF7FFF51
:100C3000FFFFE080000000000000FFFFFFFFFF005B
:100C400000000003070F070300000103017FFFFFFF
:100C5000FF7F000000000101000000000000000014
:100C60000103070F1F0E0400030F7FFFFFFFFFFFAD
:100C70007F0F0100000000000000010000000000E4
:100C8000000000000000000001000003070F070340
:100C9000000001030100000000000000070F1F0F0B
:100CA000070000000000000000000000000000003D
:100CB0000001000000000000000000000000000033
:100CC0000000000000000000000000000000010320
:100CD0000100000000000000000000000000000013
:100CE0000000000000000000000000000000000004
:100CF00000000000000000006228008040404040EA
:100D0000700C021C60404040404040404040404029
:100D1000408000C0404040C04040404040404040D3
:100D200040808040404040408000000000804040C3
:100D30004040404040404040408080404040404033
:100D400080404040404080404040404040404080E3
:100D5000804040404040404040800000000003048C
:100D60000404FC0000807C04040201FF000000FC7D
:100D7000241880403FFF000000FF0300B02C222C0D
:100D8000B000000FFC030000F8070000000000FFA7
:100D9000000000FC040404FC000000FFFE01000051
:100DA000F00E010EF0000003FF8000001CD454542C
:100DB000542300FF000000FC3C0080403F00000086
:100DC00000000000FF0000FF000000000001FE0026
:100DD000FE0718609F608003FC00F8070C1027597D
:100DE000A1B14F30080701061860831C6080000025
:100DF00000037C80007F8000807F00C03C030006F1
:100E000008102344884423100C0300010608102313
:100E10004C50A0400001FE00FE0718609F6080005B
:100E200000000000000000FF00FF000000000000C4
:100E3000030403000000000100007F807F00000029
:100E4000000000000000000000000000000102059A
:100E50000A04000000030C708F708F700E010000F8
:100E60000000000000000000000000000000000082
:100E70000000000000000000030403000000000167
:100E8000000000000000000000070807000000004C
:100E90000000000000000000000000000000000052
:100EA0000000000000000000000000000000000042
:100EB0000000000000000000000000010000000031
:100EC0000000000000000000000000000000000022
:100ED0000000000000000000000000000000000012
:100EE00000000000070804060706050204010307C6
:100EF000030502010508EDF6C9F6EDFDFDC0EFEFB3
:100F0000FCFBC0FBFCFDC1FEC1FDF7EFC0FDFBFD1E
:100F1000FBC4FBFD0C10FC02F9FDFDFDFDFDF9011C
:100F200002FC0F10272F2F2F2F2F2720100F00FC30
:100F300002F90D2DFDF90102FC00000F10272E2CE7
:100F40002F2720100F000000FC02F90DF90102FC10
:100F5000000000000F10272C2720100F00000000B9
:100F600000FC02F90102FC0000000000000F102745
:100F700020100F00000000000000FE0101FE000034
:100F80000000000000001F20201F000000000000E3
:100F900000FC0201F902FC0000000000000F10201C
:100FA00027100F0000000000FC0201F9FDF902FC0F
:100FB000000000000F1020272F27100F000000FC5A
:100FC0000201F9FDFDFDF902FC00000F1020272FA2
:100FD0002F2F27100F00FC0201F9FDFDFDFDFDF98B
:100FE00002FC0F1020272F2F2F2F2F27100FFC026E
:100FF000F9FDFDFDFDFDFDF902FC0F10272F2F2F40
:101000002F2F2F27100F00FC02F9FDFDFDF9010223
:10101000FC00000F10272F2F2F2720100F0000009B
:10102000FC02F9FDF90102FC000000000F10272F5F
:101030002720100F0000000000FC02F90102FC0054
:1010400000000000000F102720100F00000000001B
:101050000000FE0101FE00000000000000001F2053
:10106000201F00000000000000FC0201F902FC004B
:1010700000000000000F102027100F0000000000EB
:10108000FC0201F90DF902FC000000000F102027FE
:101090002C27100F000000FC0201F9FD0D2DF902B4
:1010A000FC00000F1020272F2E2C27100F003B10C4
:1010B00001FF21710301FF06186081FF010301FF99
:1010C000010301FF21710301FF2121DE0000000067
:1010D0000001FF2121DE01FF0000FF01FF06186073
:1010E00081FF01FF2171030E1121C70407040407CA
:1010F00004070000000507040004070400040704B7
:1011000004070407040003040000000004070400AF
:101110000304030404030407000000050704070494
:101120000406020404030408102A2A3C3F2424185D
:101130001C2222141824243F1C2A2A2C047E050178
:101140004C52523E3F040438243D20003E09093EE3
:101150003F081422213F20003E04043E3E04023C8E
:101160001C22221C7E22221C1E2121123E0402046B
:10117000242A2A12021F22201E20201E0E10201EAA
:101180003E10103E3F2525214E50503E03043807A7
:10119000002F0000002000000708FF0155110D017D
:1011A0000505010D115501FFFF80AA88B080A0A0A0
:1011B00080B088AA80FF090800382844FE0000009B
:1011C000000038387CFE005492001C080102020224
:1011D0000202020202040200060D0F0600020402CF
:1011E00002020202020202010310668833060803AB
:1011F0004F38000000000000000000000000000068
:10120000000000000000000000008040A05028D432
:10121000EA723A9A9A1232F5E191E1F234129A9A0C
:101220003A72EAD42850A04080000000000000007C
:1012300000000000000000000000000000000000AE
:101240000000000000008040C08000000C04FC048E
:101250000C04FC8484FC0404FC85C40C0100010D16
:1012600004FD040C05FC8485780104FC0500F88568
:1012700084F901FC010078C51C000000F80404F8A2
:101280000004FC84C40C00008040C080000000000A
:10129000008080808081838381808080909F908087
:1012A000909F90909F90909F90919C808080809044
:1012B0009F9080909F90808F90909F90809F808043
:1012C0009F809F909098908F8080808F90908F804B
:1012D000909F9081808080818383818080800001C5
:1012E0000000F8FC7C1C3CFCFCF80000008C1C1C82
:1012F0001C1474E4E4C40004040CFCFCFC0C0404A2
:101300000000F4FC3C1C1C7CFCFCC40004FCFC1C29
:101310001C1CFCF8300000F8FC3C1C1C7CFCF80099
:101320000004FCFCFC000084FCFC04000001000044
:1013300000FF0700181818FFFF000000031F3F639D
:10134000C30207070100000000FFFF0F00000000BC
:10135000000F31C30303017F0F07000001FF000CE2
:101360003FF3000000001F3F40C040203F1F00002F
:1013700000FFFF7F187EFF03000000000000000058
:101380000007080000807F0300000000000000004C
:101390000000000000000000000700000000000046
:1013A0000000000000000000000000000700000036
:1013B000000300000000000000000000000000002A
:1013C000010F000000011F78C000000000000000B5
:1013D00000000000010000000000001215090002DA
:1013E0000F12000C121E001E020600020F12000057
:1013F0000000000000000000121509000C1212008D
:101400001E121E001E0206000C1A140014120A00FE
:1014100000000000000000000100004120FE010566
:10142000F1F1F111D1B1D111F1515151515151514C
:10143000515151515151510000FF00007F7F090966
:101440000F06007F7F19396F46007F7F4949414170
:1014500000266F49497B3200266F49497B32FF00E5
:1014600000FFFFFFFEFFFEFF0279CD95A5CD7901BC
:1014700011111101F9F901010000FF00007F7F093E
:10148000090F06007F7F40404040007C7E0B0B7EB2
:101490007C00070F78780F07007F7F3E1C0800FF55
:1014A00000001F3F3F33333333333E36363E363E44
:1014B000363E36363E36363E360000FF00003E7F72
:1014C00041417F3E007F7F0E1C7F7F0000000000B7
:1014D000000000000000000000000000000000000C
:1014E0003F40504040407846414159594141414177
:1014F0005959414141414141414100007F000001B2
:10150000017F7F0101007C7E0B0B7E7C007F7F09C9
:10151000090F06007F7F494941410000000000009B
:101520000006104090BA9C904004000A0A00044053
:1015300098B8B5984004000A0A000440909CBA90FC
:101540004004000A0A00044098B5B8984004000A14
:101550000A00041210001000101090100017001D57
:1015600018101010101010000000000007060404EE
:101570000404040400040000000808003C3C7E420F
:10158000FF52FF5AFF42FF3C7E003C0000003C3C03
:101590007E42FF52FF3C7E003C0000000000000045
:1015A0003C00FF3CFF003C000000000000003C3C11
:1015B0007E5AFF42FF3C7E003C00000C10F8F8040D
:1015C000FCFAFEA5FF81FFC3FFF1FFFDFFF5FFFA67
:1015D000FE04FCF8F80000636394F7ABFFB7FFBEAE
:1015E000FFBDFFB6FFABFF94F763630000F8F8049C
:1015F000FCFAFEFDFF95FFC3FFFDFFFDFFF5FFFABF
:10160000FE04FCF8F80000636394F7ABFFB7FFBE7D
:10161000FFBDFFB6FFABFF94F7636300000C100043
:1016200000C6C629EFD5FFEDFF7DFFBDFF6DFFD5DD
:10163000FF29EFC6C600001F1F203F5F7FA5FF8167
:10164000FFC3FF8FFFBFFFAFFF5F7F203F1F1F0064
:1016500000C6C629EFD5FFEDFF7DFFBDFF6DFFD5AD
:10166000FF29EFC6C600001F1F203F5F7FBFFFA9F5
:10167000FFC3FFBFFFBFFFAFFF5F7F203F1F1FFE06
:10168000028C021A02A8015404E20370030E1040F7
:1016900040BCFC02FE9EFE02FE19FF3DFF35FFB975
:1016A000FF01FF42FEBCBC00000000000000000182
:1016B000011E1F001F0F1F071F071F1F1F001F03F3
:1016C0001F181F0F0F000000000000BCBC42FE01ED
:1016D000FFB9FF35FF3DFF19FF02FE9EFE02FEBC73
:1016E000FC404000000F0F181F031F001F1F1F07A3
:1016F0001F071F0F1F001F1E1F0101000000003DDC
:10170000200004041E1AFFE2FF02FF02FF02FFE2B4
:10171000FF22FFE2FF02FF02FF04FEFCFE1AFF02AF
:10172000FF02FFC2FF22FFE2FF02FF02FF02FFFCF7
:10173000FEF4FE0AFF02FF02FFC2FF32FF0C7E72C0
:10174000FF82FF02FF02FF1AFFE4FEE4FE1AFF021F
:10175000FF02FFC2FF22FF22FFA2FFC2FFA2FF1C67
:10176000FEFCFE02FF02FF02FFE2FF22FFE2FF0299
:10177000FF02FFC2FF3AFF043E0004000000000029
:10178000FFFFFF00FF00FFFFFF40FF38FF87FF4024
:10179000FF207F1CFFFFFF00FF00FFECFF4BFF84DB
:1017A000FF48FFDFFF00FF00FFC3FF3FFF187F6020
:1017B000FF80FF1FFF60FF80F070FF0FFF80FF6062
:1017C000FF1C7F031F0F1F103F103F0A1F09DFC9B7
:1017D000FF3DFF80FF40FF307F0F3F077F78FF8096
:1017E000FF00FF0FFFC8FF87FF4CFF4BFF50FB20A0
:1017F000700020000000000000001F1FFFE0FF003D
:10180000FFFEFF02FF0103000100000000000101D4
:101810001F1EFFE0FF1FFFE0FF00FF00FFFFFF00B4
:10182000FFC0FF3FFF003F00000000000101030276
:10183000070207020701030001000000000000008A
:1018400000000000020207050F020701030001006B
:10185000000000000000000003030F0C3F30FFC336
:10186000FF1CFFE0FC00E0000000000000000000A2
:101870000000000000003F3F7F40FF3F7F003F002F
:101880000000000000000000000000000000010156
:101890000300010038387F47FF387F073F0007000B
:1018A0000000000000000000000000000000000038
:1018B0000000000000000000000000000000000028
:1018C0000000000000000000000000000000000018
:1018D00000000000000000000000030307040F0BDD
:1018E0001F040F00040000000004081E3F211E22F8
:1018F0003E3F203229253212253F1A0C2A3F2C1751
:10190000253D181E3F251823393D231A252D1A067B
:101910002F291E0708060F1F3E1F0F06060911225A
:10192000110906031002FC0000FF00FFFFFE50A09B
:1019300040800000000000000000000000000000E7
:1019400000000000000000FFFFFFFDFEFDFEFDFEA9
:10195000FCFCFCFCFCFCFCFCFCFCFCFCFCFCFCFCC7
:10196000FCFCFCFFFFFFFFFFFFFFFFFFFFFFFFFF90
:10197000FFFFFFFFFFFFFFFFFFFFFFFFFFFFFFFF77
:10198000FFFFFFFFFFFFFFFFFFFFFFFFFFFFFFFF67
:10199000FFFFFFFFFFFFFFFFFFFFFF0F0F0F0F0F07
:1019A0000F0F0F0F0F0F0F0F0F0F0F0F0F0F0F0F47
:1019B0000F0F0F0F0F0F0F1C24FE0000A040800020
:1019C0000000000000000000000000000000000017
:1019D000000000000093D090DA1B9A991A1800C0FA
:1019E00080C080C080C080C0800000000000C0C0F7
:1019F00000EA6262FF00FFFF000000DDCCCCCCCC2F
:101A0000CCCCCCCCCC00C0000000FFFF0001FF77A5
:101A1000FF00FFFF000000DDCCCCCCCCCCCCCCCC8C
:101A2000CC00CC000000FFFF00000F0F0F000F0FD5
:101A30000000000D0C0C0C0C0C0C0C0C0C000C0021
:101A400000000F0F000C10048E46A2428642A246F0
:101A50008E428400020707050603070506070219E0
:101A6000A6BE5E3EFE7E7E6E76EE01040202040499
:101A700008050D050D0400FEFFFFFFFFFFFFFFFF40
:101A8000FFFFFE0003070F0F07070F0F0703000CF0
:101A900010007AB676B676BA7ABA7A3600000000C6
:101AA0000000000000000000001808FEFFFFFFFE1D
:101AB000FEFEFCFCFCFEFEFEFFFFFFFEFEFEFCFC4D
:101AC000FCFEFE2E06FC05BE05800542050405C68B
:101AD000040A07F206D406B60698067A065C0618CB
:101AE00010808040C0A0E0A0E0A0E0A0E090F0A8BE
:101AF000F894FC8AFE8AFE8AFE05FF85FF85FF8535
:101B0000FF4AFE6AFE3AFE1AFE0AFEC4FC18F8E01E
:101B1000E00F0F303F0E3F303F033F173F143F179A
:101B20003F133F103F003F1E3F303F003F003F301C
:101B30003F0E3F003F323F121F111F080F040703E3
:101B4000031410C0C030F0C8F8F4FC1AFE65FF6D35
:101B5000FF6AFE6AFE2AFECAFEF2FE3AFE05FF0595
:101B6000FF32FEC4FC08F830F0C0C01F1F607F1DAC
:101B70007F617F077F2F7F297F2F7F277F217F0135
:101B80007F3D7F607F007F017F617F1D7F007F60E1
:101B90007F1F1F0808003C3C7E42FF52FF5AFF4255
:101BA000FF3C7E003C0000003C3C7E42FF52FF3C7C
:101BB0007E003C000000000000003C00FF3CFF00F5
:101BC0003C000000000000003C3C7E5AFF42FF3C0D
:101BD0007E003C0000F0F8F8F8F8FEFFFFFEF8F891
:101BE000F8F8F8F8600707070707FFFFFFFF070788
:101BF00007070703001010F0084848484E0D4F0E25
:101C00004848080898F8600704050405FD0DFDFC28
:101C10000504040407030000F0B0B0B0B0F2B0F067
:101C2000B0B0F0F0600000000302030202F2020311
:101C3000020303030000000D10FC02A9DDFDFDFD01
:101C40007D8181010101FF00AFDFFFFFFFF004078D
:101C50008000A0000000FFFFFEFEFEFFFFFFFFFF71
:101C6000FFFFFFFFFFFFFFFFFFFFFEFEFE3C3C3CD0
:101C7000FFFFFFFFFFFFFFFFFFFFFFFFFFFFFFFF74
:101C8000FFFFFFFFFFFFFF000000FFFFFFFFFFFF61
:101C9000FFFFFFFFFFFFFFFFFFFFFFFFFFFFFFFF54
:101CA000FF000000FFFFFFFFFFFFFFFFFFFFFFFF41
:101CB000FFFFFFFFFFFFFFFFFFFFFF0000000F0F11
:101CC0000F0F0F0F0F0F0F0F0F0F0F0F0F0F0F0F24
:101CD0000F0F0F0F0F1A2400000000FEFCDC2C3643
:101CE000F616EE767AFA7A7AF2E60E16F6362CDCEC
:101CF000FC00181810939716D595D694C38FC68DEF
:101D0000C78EC391D090D191D596D700000000FF27
:101D1000FF00FF6262626A62626A62626AE2622A6B
:101D2000A2A2AAA26200000000FFFF00FFFFFFE3E3
:101D300063636341E3F7FF01FC0300000000000060
:101D40000000000F0F000F0F0708050F0503040325
:101D50000F000F000000000000FFFFFFFFFFFFFF6C
:101D6000FFFFFFFFFF0F0F0F0F0F0F0F0F0F0F0FD3
:101D70000F3C083C080A08A807660734072A072012
:101D8000072A07451A06104090BA9C904004000AA2
:101D90000A00044098B8B5984004000A0A000440BC
:101DA000909CBA904004000A0A00044098B5B89884
:101DB0004004000A0A0004121000100010109010D5
:101DC0000017001D18101010101010000000000067
:101DD0000706040404040404000400000003106661
:101DE00088330608034018AA00AA00AA01AB07AF6F
:101DF0001FBF7FBF7FFFFFFF7FFF7FFF7FBF1FBF33
:101E00001FAF07AB03AB07AF1FBF7FBF7FFFFFFF56
:101E1000FFFFFFFFFFFF7FBF7FFF7FFF7FBF1FBF72
:101E20001FAF07AB01AA00AAFDAAFDAAFDAAFDAA41
:101E3000FDAAFDAAFDAAFDAAFDAAFDAAFDAAFDAA6A
:101E4000FDAAFDAAFDAAFDAAFDAAFDAAFDAAFDAB59
:101E5000FDABFDABFDAAFDAAFDAAFDAAFDAAFDAA48
:101E6000FDAAFDAAFDAAFDFBFFFEFFFBFFFEFFFB97
:101E7000FFFEFFFBFFFEFFFBFFFEFFFBFFFEFFFB86
:101E8000FFFEFFFBFFFEFFFBFFFEFFFBFFFEFFFB76
:101E9000FFFEFFFBFFFEFFFBFFFEFFFBFFFEFFFB66
:101EA000FFFEFFFBFFFEFF03040002020700020C1F
:101EB0000C000000C0C0F898FC6CFE5CFE6CFEBC20
:101EC000FED8FCC0F800C000000007070F090F068D
:101ED0000F090F010F030F090F060F090F070F005E
:101EE00007000000C0C0F8D8FCBCFE6CFE5CFE6CB5
:101EF000FE98FCC0F800C000000007070F090F069D
:101F00000F090F030F010F090F060F090F070F002D
:101F1000070000000000000C0E000070708CFC0236
:101F2000FE09FF1DFF1DFF09FF02FE8CFC70700003
:101F3000000000000001010A0B0101161702030155
:101F4000010A0B0101000000000000808060E01425
:101F5000F420E01AFA10F020E014F460E080800031
:101F600000000003030C0F101F243F2E3F2E3F24C0
:101F70003F101F0C0F030300000D000000000010B5
:101F800010000000C0C0E020F010F890F808FC0835
:101F9000FC10F808FC04FE94FE44FE387E023F006C
:101FA00002001E1E3F217F4CFF56FF5EFF4CFF21AB
:101FB0007F247F207F103F0C1F030F0003000000D1
:101FC000000401020000000C0C004C4CFE90FC4C84
:101FD000FEB6FF9EFF9EFFB6FF4CFE90FC4CFE003F
:101FE0004C0000000C040F03070003020702070067
:101FF000030307040F000C00000200020F0F0F0C78
:102000000CF8F804FCFAFECDFFBDFFCDFFFDFF7D0F
:10201000FF7DFF3AFE04FCF8F80101020305070802
:102020000F090F080F090F080F0A0F050702030118
:1020300001F8F804FC3AFE7DFF7DFFFDFFCDFFBDFA
:10204000FFCDFFFAFE04FCF8F80101020305070AC0
:102050000F080F090F080F090F080F0507020301EA
:102060000103000201050D0C0C000000C0C0F8982F
:10207000FC6CFE5CFE6CFEBCFED8FCC0F800C00030
:10208000000007070F090F060F090F010F030F09C3
:102090000F060F090F070F0007000000C0C0F8D897
:1020A000FCBCFE6CFE5CFE6CFE98FCC0F800C00040
:1020B000000007070F090F060F090F030F010F0993
:1020C0000F060F090F070F000701000103070700A4
:1020D000212711241FBECFEFDAE0DEBFCDBF11E014
:1020E000A0E0B1E0EAEEF4E602C005900D92A6335E
:1020F000B107D9F729E0A6E3B1E001C01D92AB33E7
:10210000B207E1F710E1C9E6D0E104C02197FE0172
:102110000E946632C836D107C9F70E9488270C94FE
:1021200073320C9400006F927F928F929F92AF92C5
:10213000BF92CF92DF92EF92FF920F931F93CF93B4
:10214000DF936C01DB0148017E2D4115510509F437
:102150009DC0FA016491319684914E5F5F4FC62F06
:10216000D0E0222301F1E1E0F0E0982F977011F424
:10217000F0E0E0E0082F0695069506950E0F1F2F5C
:10218000111D0C9FF0010D9FF00D1C9FF00D1124EF
:10219000733011F4EE0FFF1F2E9F80012F9F100D43
:1021A0001124400F511F86010C0F1D1F1016110620
:1021B0000CF06CC0F0E8CF16D1040CF067C09D01A4
:1021C000280F311D121613060CF060C0A034B105A3
:1021D0000CF05CC04115510509F458C03A2F377016
:1021E000FD01B7FD379693E0F595E7959A95E1F7F0
:1021F0002E2FB7FF04C0332311F02FEF2E0FEE2741
:10220000FF27EC19FD09D7FC02C0F0E0E0E090E800
:102210009C19003811050CF4962F9E1BA22F022E3C
:10222000000CBB0B1A2F10952F3F0CF010E0BB24B5
:10223000B394082F077009F4B12C8695869586957E
:10224000B80EAB0DB11D19971CF0A8E0BA2EB21A4A
:10225000B11A210F00E82003D0011124AC0DBD1DDF
:10226000AE0FBF1F619FE00DF11D11244E0F5F1FC8
:10227000C32E032E000CDD08733009F418C1A8F436
:10228000713009F4CAC0723009F478C0DF91CF917F
:102290001F910F91FF90EF90DF90CF90BF90AF9084
:1022A0009F908F907F906F9008957A3FB1F10B2DA2
:1022B000020F7B3F59F7201749F3BD01655C7A4F48
:1022C000F12CE12CE91608F0A2C0FA01EE0DFF1D79
:1022D000E491F0E04F010C2C02C0880C991C0A9488
:1022E000E2F727FD06C0FB018081182D10958123A0
:1022F0008083332361F0273054F45B01F0E8AF0EA4
:10230000B11C192D1095F501808181238083FFEF89
:10231000EF1AFF0A6F5F7F4FD5CF0B2D020F2017EB
:1023200009F4B4CFBD01655C7A4FF12CE12CE916BC
:1023300008F067C0FA01EE0DFF1DE491F0E04F01D7
:102340000C2C02C0880C991C0A94E2F727FD04C0EB
:10235000FB01808188298083332351F0273044F4A6
:102360005B01F0E8AF0EB11CF50180818929808303
:10237000FFEFEF1AFF0A6F5F7F4FD9CF6FEF70E06B
:10238000032E02C0660F771F0A94E2F760957095DE
:10239000972E8B2C820E281509F478CF8D01055CC1
:1023A0001A4FF12CE12CE91630F5FA01EE0DFF1D64
:1023B000E491F0E03F010C2C02C0660C771C0A94FB
:1023C000E2F727FD05C0F8018081862386298083F6
:1023D000332359F027304CF45801F0E8AF0EB11C0C
:1023E000F5018081892187298083FFEFEF1AFF0A99
:1023F0000F5F1F4FD8CF2F5F4C0F5D1FA058BF4FEF
:10240000CACF2F5F4C0F5D1FA058BF4F88CF2F5FE3
:102410004C0F5D1FA058BF4F4ECF84010E0F1F1FE2
:102420008B2D820F281709F431CFBD01655C7A4FDF
:10243000F12CE12CE91698F5F801EE0DFF1DA490A2
:10244000B12C0C2C02C0AA0CBB1C0A94E2F7A0947D
:10245000B094FA01EE0DFF1D8490912C0C2C02C05B
:10246000880C991C0A94E2F727FD08C0FB017080D4
:10247000E72DEA217E2E7828FB017082332349F074
:1024800027303CF4FB01E058FF4FA080BA20B92868
:10249000B082FFEFEF1AFF0A6F5F7F4FCBCF2F5F46
:1024A0004C0F5D1F0C0F1D1FA058BF4FBBCFE92E57
:1024B000F12CE40FF51FA55CBA4F60E870E06E19CF
:1024C0007F09CE19DF09AE01440F551FC1E0D0E0EE
:1024D0007E01032E01C0EE0C0A94EAF7192F0B2D92
:1024E000892E932ECF93DF93ED01EF96EF962296F0
:1024F000A590C590992059F0AE9C5001CE9C6001EA
:1025000027302CF4F880D094FD20FB28F992222368
:102510003AF0FC90C094FC20FA28FD920C949112A1
:1025200011961A9529F70A9551F0182D2395112423
:10253000E40FF11DA60FB11DC60FD11DD9CFDF913C
:10254000CF911124A3CE80913A05809590913905C1
:1025500089230895EBE3F5E0A0E0B8E000800EBC2D
:102560008111012C1197A0FDFDCF0192B9F70DB497
:1025700008959C01480F592F511D4138510514F001
:1025800040E850E0421BCB018770992791E001C0E1
:10259000990F8A95EAF7FB0183E0F595E7958A950F
:1025A000E1F7F695FE2FEE27F795E795E20FF31F7B
:1025B000E55CFA4F415030F08191DF011197892B92
:1025C0008C93F8CF0895FC010E94F712319728F000
:1025D00068517C4F8F4F9F4FF9CFAB01FC010E9498
:1025E000F712641775078E079F07C8F30895AEE7C3
:1025F000B1E02FB7F8947D918D919C9166B52FBF76
:10260000A89B05C06F3F18F47F5F8F4F9F4F22E05C
:10261000660F771F881F991F2A95D1F70895EF92AB
:102620000F931F9333E0E32E10E000E00E9493101D
:102630001F910F91EF900895EF920F931F933AEF30
:10264000E32E10E000E00E9493101F910F91EF9095
:102650000895EF920F931F933BEFE32E10E000E0FD
:102660000E9493101F910F91EF900895EF920F9396
:102670001F9332E0E32E10E000E00E9493101F91C0
:102680000F91EF90089590E00C94E3128FB1809534
:10269000807F669B88601C9B84600895FC01118A82
:1026A00011821082138A8FEF9FEF97838683918721
:1026B00080871486158614820895DC01ED91FC91C3
:1026C000309711F08491089580E00895CF93DF93BF
:1026D000EC010E945D13882339F0EA81FB81319679
:1026E0008491DF91CF9108958CE0FBCFCF93DF935E
:1026F000EC010E945D13882331F0EA81FB81849113
:10270000DF91CF9108958CE0FBCFBF92CF92DF9203
:10271000EF92FF920F931F93CF93DF9300D000D0DF
:1027200000D0CDB7DEB78C010E945D13F801C680E2
:10273000D780E084F184882379F08D3079F1C80165
:102740000E947613B82EC8010E946613DA82C982ED
:10275000FC82EB82BD8209C0C8010E946613DA8246
:10276000C982FC82EB8299E09D838E8329813A8124
:102770004B815C816D817E8180E090E026960FB672
:10278000F894DEBF0FBECDBFDF91CF911F910F91A7
:10279000FF90EF90DF90CF90BF900895F2E0CF0EC2
:1027A000D11C82E0E80EF11CC8010E947613B82EFD
:1027B000C8010E946613DA82C982FC82EB829CEF18
:1027C0009B0D9D838450D1CFCF93DF93FC01C681B5
:1027D000D7810E9476138C0F9D2F911D0197DF9159
:1027E000CF9108950F931F93FC0180819181A28165
:1027F000B3818C019D014DE0000F111F221F331F7B
:102800004A95D1F7082719272A273B27D901C8015C
:1028100051E1B695A795979587955A95D1F70827D1
:1028200019272A273B27C901B801A5E0660F771FA2
:10283000881F991FAA95D1F76027712782279327B0
:1028400060837183828393831F910F910895FC01AC
:10285000E65BFF4F8F529F4FE817F90771F0208119
:1028600031812617370739F4228133812417350740
:1028700011F4848108953996EFCF80E00895FF9296
:102880000F931F93CF93DF93F82E8B01EA014F3FF5
:10289000540731F086EA93E00E942714811119C091
:1028A00020917704E9E02E9FC00111248A559C4FA6
:1028B000FC01E65BFF4F118300833296D183C08316
:1028C000825B9F4FFC01F0822F5F2F3041F02093FD
:1028D0007704DF91CF911F910F91FF90089510928F
:1028E0007704F7CF9C01CB016CE070E00E9452327C
:1028F000FC018D3020F5413110F5CB0163E070E033
:102900000E945232BC015CE0569FC001579F900D5F
:1029100011248E0F9F1F0196880F991F820F931FFE
:1029200021E030E002C0220F331F4A95E2F7FC019C
:10293000808191812823392381E0232B09F480E0D1
:102940000895EF92FF920F931F93CF93DF93FC01B3
:10295000CB01EA012CE030E0B9010E9452327B0148
:10296000CE01B9010E9452328B01C489D589CE5D56
:10297000DD4FAB01B701CE010E94721481110FC06F
:1029800017FD0BC0A801B701CE010E9427148130AA
:1029900020F08C3028F08D3019F080E001C08FEFEE
:1029A000DF91CF911F910F91FF90EF9008957F924B
:1029B0008F929F92AF92BF92CF92DF92EF92FF924F
:1029C0000F931F93CF93DF93EC01862E0E945D132C
:1029D0008823A9F1CE010E947613D12CC12C912C11
:1029E0009CE0792EE82EF12CCE010E947613672D03
:1029F0000E943232981608F054C0A884B98481E04D
:102A0000881679F181E0A81AB1080E811F810C0D9A
:102A10001D1DA501B801CE010E94A114882389F0D3
:102A200081E0DF91CF911F910F91FF90EF90DF90A8
:102A3000CF90BF90AF909F908F907F90089589E046
:102A4000CCCFB701600F711F61507109A501CE0194
:102A50000E94A1148111E4CF93948CE0C80ED11C84
:102A6000C3CFCE010E946613A501480F511D6E8190
:102A70007F816C0D7D1DCE010E94A1148111D0CFEC
:102A800008851985CE010E946613A801480F511DC3
:102A90006E817F816C0D7D1D6E0D7F1D61507109F2
:102AA000D6CF80E0BECFCF93DF93EC0161E00E94F0
:102AB000D714882319F09BEF9D87188ADF91CF9157
:102AC000089561E00E94D71491E0892708950E943B
:102AD000A31230913905232F20749091A50135FD63
:102AE0004DC0211157C019161CF491509093A501A7
:102AF0009091A50197FF03C09F5F9093A50182FF6E
:102B000011C089E991E00E94611581114FC089E9E6
:102B100091E00E945315882309F448C081E0809316
:102B2000AB0108958091AB01882359F00E944613B0
:102B300082FF07C089E991E00E946115811104C0FC
:102B400008951092AB0108958091A901863058F440
:102B50008F5F8093A90180FD29C08091A6018250DA
:102B60008093A60108958C3008F58F5F8093A901AA
:102B700080FD1CC08091A6018150F2CF32E03093DD
:102B8000AC0191509D3F0CF49DEF9093A501222341
:102B900009F4B5CF23E02093AC019091A5019F5F8C
:102BA00094300CF4AACF2093A501A9CF08950F93D8
:102BB0001F93CF93DF93EC010E945D13833009F4E0
:102BC00078C0B0F4882331F1813009F472C0EC8907
:102BD000FD894A815B816885798585859685681B35
:102BE000790B8E819F810384F485E02D20E075C0F0
:102BF0008D3009F475C08E3009F49DC0853039F7E9
:102C00008C81853120F782FFE2CFDF91CF911F9138
:102C10000F910895CE010E9461150C891D899B8931
:102C200068857985AE81BF8121E08823C9F0933022
:102C300009F020E061507109F80185859685681BCF
:102C4000790B83859485AD01481B590BCA014DE86A
:102C500056E10297DF91CF911F910F910C940F13C2
:102C6000933009F020E0E88D8C8581111CC08D85A2
:102C7000811119C0E33008F0188EE88DF0E0EE0FF6
:102C8000FF1FE957F94E4591549161507109F801C0
:102C900085859685681B790B83859485FD01E81BE6
:102CA000F90BCF01D6CFF0E0EE0FFF1FE158F94E40
:102CB000EACFEC89FD8921E08B89833009F020E09F
:102CC0004A815B816885798585859685681B790B46
:102CD0008E819F810384F485E02D8E1B9F0BBACFDC
:102CE000EC89FD893D856885798585859685681B94
:102CF000790B8E819F8143855485841B950B21859B
:102D000020FD07C021E013160CF020E04A815B8112
:102D1000A1CF40918201509183014770552721E056
:102D2000453008F420E04DE156E113160CF492CF43
:102D30004BEB55E18FCF8C81853110F482FD65CF4F
:102D4000EC89FD8920918201309183012F70332716
:102D500026952695688579856E5F7F4F8585968552
:102D6000681B790B8E819F8102960384F485E02D88
:102D700049E755E1B2CF2F923F924F925F926F9207
:102D80007F928F929F92AF92BF92CF92DF92EF92FB
:102D9000FF920F931F93CF93DF93CDB7DEB7639767
:102DA0000FB6F894DEBF0FBECDBF80918F0190911A
:102DB000900197FD0396959587959595879560E485
:102DC00070E00E9452329C01809191019091920199
:102DD00040918D0140FF9BC06CE070E00E94523238
:102DE00000271127021B130B80EC90E06C01C21A24
:102DF000D30A5B0126E0A21AB10820E045EE5DE1AE
:102E0000B501C8010E943613005C1F4FC016D106E1
:102E1000A1F780918F01909190016CE070E00E9489
:102E200052321B01ACE02A1A31082CE0269FC00167
:102E3000279F900D11241F821E82FC01E059F10989
:102E4000F98BE88B9C012E5831093B8B2A8BBCE017
:102E5000FB2E80918F01909190016CE070E00E94B8
:102E60005232605F7F4F621573050CF427C1809169
:102E70009101909192016CE070E00E9452323B010E
:102E8000488859884E815F81440E551E8A899B89E6
:102E9000840F951F9D878C87F69E5001F79EB00C7E
:102EA0001124D12CC12CD5011296BF87AE87009179
:102EB000910110919201C8016CE070E00E945232C1
:102EC000685F7F4F661577050CF4EEC077FC7EC017
:102ED00080908F0190909001A301B10186EA93E068
:102EE0000E942714EAEFE80FEB3008F06FC0F0E023
:102EF000E458F84E0C946632CF17CF17CF17CF1780
:102F0000ED1700181118E61726183D18491866E045
:102F100070E00E9452324B0140E1841A910807E0B0
:102F200010E0021B130B87EC90E02C01421A530AAD
:102F30003B015CE1651A71085B0185E0A81AB108E4
:102F40006B0199E0C91AD10820E04DED5DE1B301B4
:102F5000C8010E94361320E04DED5DE1B401C801C7
:102F60000E94361320E047EB5DE1B501C80183966E
:102F70000E94361320918201309183012F703327F4
:102F80002695269545E85DE1B601C80143960E9465
:102F90003613005C1F4F04151505B1F63ACFE82F24
:102FA000F0E0EE0FFF1FEF58F24E45915491B5013E
:102FB0006C0D7D1D601B710BEE24E39409E51DE192
:102FC00020E0C201881999090E949310BFEF6B1A83
:102FD0007B0AECE0CE0ED11C6ACFB5016C0D7D1DD5
:102FE000601B710B68517109C20188199909EE249F
:102FF000E39403E51CE120E045ED5CE18497E4CF38
:10300000B5016C0D7D1D601B710B64507109C2010F
:103010008819990920E047E35CE10D970E94361377
:10302000D5CF20918D012170B5016C0D7D1D601BE8
:10303000710B64507109C20188199909EE24E39457
:1030400005ED1BE145EF5BE10497BECF20918201C6
:10305000309183012F703327269526956E857F85C5
:103060006C0D7D1D601B710B43E95BE18C859D85BB
:10307000881999090E940F13A9CFB5016C0D7D1D08
:10308000601B710B6350710920E041E45BE1C201F8
:10309000EFCFB5016C0D7D1D601B710B6250710986
:1030A00020E04FED5AE1F3CFFFEF2F1A3F0A2E81B8
:1030B0003F81245F3F4F3F832E83CBCE52EBC52E03
:1030C00051E0D52E65E1A62EB12C73E0872E912C10
:1030D000D60115968C911597811104C051968C914B
:1030E0008131B8F0C6010E94E41320918F01309124
:1030F0009001821B930B181619065CF4F601868169
:103100009781821B930B803891051CF4C6010E94A5
:10311000D715D60151968C91882389F1F501E81BCA
:10312000F109CF01B4010E945232660F771FFB01F3
:10313000EF52F54E05911491FB01ED53F54E45917B
:10314000549120918D012170D60118966D917C913A
:1031500019978091910190919201681B790B6250AF
:10316000710916968D919C91E0918F01F0919001DB
:103170008E1B9F0BEE24E39402970E949310B9E1FB
:10318000CB0ED11CE6EACE16E3E0DE0609F0A0CFB6
:1031900080918D0180FF23C08091820190918301F5
:1031A00068E170E00E943E329595879500271127CF
:1031B000081B190B39EBC32ED12C809191019091F2
:1031C0009201B601681B790B20E049EA5AE1C80177
:1031D0000E942913085E1F4F0038110574F3809177
:1031E0008F01909190016CE070E00E9452324B018F
:1031F000FCE08F1A91088CE0869F2001879F500C7D
:1032000011241CE0212E312C0CE0F02E80918F0136
:1032100090919001B1010E945232605F7F4F68151A
:1032200079050CF468C08091910190919201B101EF
:103230000E9452325B019201205931093F832E8353
:103240000091910110919201C801B1010E94523286
:10325000685F7F4F6A157B050CF446C0A501B40179
:1032600086EA93E00E9472143FEFA31AB30A882300
:1032700039F3FA9C6001FB9CD00C11244CE0C41A79
:10328000D108C01AD10A80918F01909190016E806F
:103290007F80681A790A50E1A516B10441F0A501B2
:1032A000B40186EA93E00E947214882389F0809129
:1032B0008D01EE24E39409E51DE121E080FD05C0C8
:1032C000EE24E39409E51DE120E045E45AE107C05E
:1032D000EE24E39407E71AE120E04FE85AE1B60153
:1032E000C3010E949310ACCF8FEF881A980A9CE01C
:1032F000490E511C8BCF80918401813040F0853084
:1033000058F0863021F4809185018C3048F489E9A9
:1033100091E00E94D71504C08091850180FFF7CF0E
:1033200080918401863009F037C080918501ECE1FD
:10333000F0E0E81BF109F7FD3396F595E795F59573
:10334000E795CF01880F991FFC01EF52F54E0591CB
:103350001491FC01ED53F54E4591549120918D014E
:1033600021706091A1017091A201809191019091D1
:103370009201681B790B6450710980919F019091B3
:10338000A001E0918F01F09190018E1B9F0BEE2424
:10339000E39402970E94931080918F019091900185
:1033A0006CE070E00E9452325B018CE0869F20014D
:1033B000879F500C11247CE0872E912CECE0FE2E90
:1033C00080918F0190919001B4010E945232605F10
:1033D0007F4F6A157B050CF46CC080919101909130
:1033E0009201B4010E9452326B01F69ED001F79E09
:1033F000B00D1124BF83AE83712C612C20909101FC
:1034000030909201C101B4010E945232685F7F4F37
:103410006C157D050CF446C0A601B50186EA93E063
:103420000E947214811110C0D7FC0EC000918F0150
:1034300010919001A601B50186EA93E00E9427143D
:103440008A3049F08B30E9F0BFEFCB1ADB0AECE0B1
:103450006E0E711CD3CF6E817F81660D771D621950
:10346000730968517109C201801B910BEE24E3942A
:103470000BE219E120E047EB59E10A970E94931013
:10348000E3CF6E817F81660D771D621973096450E9
:10349000710920E043E259E1C201801B910B0E94B7
:1034A0003613D2CFFFEFAF1ABF0A2CE0420E511CE9
:1034B00087CF80919F019091A001B4010E94523268
:1034C00080918B0190918C01FE01319625E0DF0106
:1034D0001D922A95E9F7860F971F97FF02C090E08B
:1034E00080E08E010A5F1F4F2AE030E0B9010E94A0
:1034F0003E328193CB010E171F07C1F780918D01DA
:10350000EBE3F5E080FFF6C08FE695E02FEF219327
:103510008E179F07E1F721E080918A01811120E059
:1035200043E159E161E070E081E090E00E942913FD
:1035300021E080918A01823008F020E043E159E1E6
:1035400061E070E089E090E00E94291321E0809121
:103550008A01833008F020E043E159E161E070E046
:1035600081E190E00E94291368010BE110E0F6016F
:1035700022916F0149EE58E161E070E0C8010E94BC
:1035800029130B5F1F4F0433110589F780918304C2
:10359000882349F020E04FEF56E16FE070E080E2D1
:1035A00090E00E940F1305E814E039E3C32E35E0E4
:1035B000D32E4FE7A42EB12C50E4852E912CD801A8
:1035C00016968D919C9117974E9717969C938E9374
:1035D000169714960D90BC91A02D25EF30E00E9417
:1035E0006C32BB2797FDBA95A92F982F872FF8012A
:1035F00095838483208131812038310544F0B18264
:10360000A08266277727681B790B75836483D801AE
:103610008D919C91119797FF0EC011961C921E924E
:1036200014968D919C911597919581959109159678
:103630009C938E931497F801828193818134910534
:1036400024F09382828217821682D80112968D917D
:103650009C91139797FF04C017961C921E92169781
:10366000F80125812887220F220B298720813181AB
:1036700048855985240F351F3183208327812A8768
:10368000220F220B2B87AA85BB858A1B9B0B93835A
:1036900082838085882311F081508087F80180859E
:1036A000882349F06281738120E047EA5EE18081EE
:1036B00091810E940F13075F1F4FC016D10609F0BA
:1036C0007ECF63960FB6F894DEBF0FBECDBFDF91FD
:1036D000CF911F910F91FF90EF90DF90CF90BF900F
:1036E000AF909F908F907F906F905F904F903F90A2
:1036F0002F9008958FE695E011928E179F07E1F7BE
:1037000021E080918A01811120E043E159E161E0EB
:1037100070E081E090E00E941C1321E080918A011A
:10372000823008F020E043E159E161E070E089E097
:1037300090E00E941C1321E080918A01833008F000
:1037400020E043E159E161E070E081E190E00E9416
:103750001C136BE1C62ED12CD8012E918D0149EEA0
:1037600058E161E070E0C6010E941C13B5E0CB0E89
:10377000D11CE4E3CE16D10479F708CF9F92AF9223
:10378000BF92CF92DF92EF92FF920F931F93CF934E
:10379000DF93EC01C62E0CE010E0D12C8CE0982ECB
:1037A000CE010E946613692D0E943232D81608F0AD
:1037B0005CC022E0C21639F083E0C81679F1D394D8
:1037C000045F1F4FEDCFE884F984AE80BF8021E015
:1037D000A21AB108A8014C5051094E0D5F1DB50148
:1037E000CE010E94A114882369F081E0DF91CF917E
:1037F0001F910F91FF90EF90DF90CF90BF90AF900F
:103800009F900895A8014E0D5F1D41505109B501CB
:10381000CE010E94A114882391F2E7CF8885998573
:1038200078012CE0E21AF108E80EF91EAE80BF80A4
:10383000CE010E947613B501680F711DA701CE015C
:103840000E94A1148111D1CFE884F984E00EF11E09
:1038500081E0E81AF108AE80BF80CE010E947613A5
:10386000B501680F711DA701D3CF80E0BFCFFF92D4
:103870000F931F93CF93DF93EC01488559856E8199
:103880007F810E94A1148F3F21F41D82CE010E94EE
:103890004E13CE010E945D13813009F490C080F078
:1038A000853011F08E3021F58C81882309F181500B
:1038B0008C8381111DC01D82CE010E944E1318C041
:1038C0008C85811115C08D85811112C08091820176
:1038D0009091830166E070E00E943E32892B41F4B2
:1038E000888D90E0019663E070E00E945232888FEC
:1038F000CE010E945D13811118C08C85811115C005
:103900008D85811112C0809182019091830166E0C2
:1039100070E00E943E32892B41F4888D90E0019640
:1039200063E070E00E945232888FCE010E945D13E6
:10393000853009F43EC09D858D3009F066C0892F21
:103940009F37A9F48C899D8986509D4F0E94F21360
:1039500028E230E040E050E00E940132672B682B03
:10396000692B11F48CEE8D878D858F37B9F0288502
:103970003985982F87FF02C093E0980F959595950C
:10398000A901490F511D97FD5A95205231096E85A5
:103990007F855987488762177307A4F58A859B85B9
:1039A000288539858217930724F42FE72D87998777
:1039B0008887DF91CF911F910F91FF9008958D859A
:1039C000811196CFCE010E946115811191CF8C8912
:1039D0009D8986509D4F0E94F21324E130E040E023
:1039E00050E00E940132672B682B692B09F080CFD1
:1039F0008C899D8986509D4F0E94F2136770619556
:103A00006D8776CF8F5F8D87C9CFE881F981309739
:103A1000B1F03196E491E0FF14C08C852E813F8196
:103A2000280F311D87FD3A953F832E8328853985E0
:103A3000290F311D97FD3A9539872887BACFE0E0E5
:103A4000EACF91110AC0CE010E946115882329F0A6
:103A50008D85863014F48F5F8D878D8518160CF553
:103A600010E000E08D85082E000C990B081719074F
:103A700074F4CE010E946115882341F088859985F0
:103A80000196998788870F5F1F4FECCF1D86CE0167
:103A90000E946115882329F08D85863014F48F5F8C
:103AA0008D878D8587FF13C08F5F8D8710E000E0C5
:103AB0008D85082E000C990B8017910744F460E067
:103AC000CE010E94D714882309F44EC01D868C8530
:103AD00018162CF510E000E090E9F92E8C85082EE0
:103AE000000C990B08171907D4F4CE010E94E413B7
:103AF000EC89FD89EB50FD4F208130E02F5F3F4F77
:103B0000F29EA001F39E500D1124841795073CF4FA
:103B100063E0CE010E94BE1B882371F11C868C8558
:103B200087FF47CF10E000E080E9F82E8C85082E53
:103B3000000C990B801791070CF03BCFEC89FD89A5
:103B4000EC50FD4F80818F9DC00111242E813F815B
:103B5000821793070CF02DCF62E0CE010E94BE1BAE
:103B6000882301F11C8625CF88859985019799873F
:103B70008887015011099CCF8E819F8101969F8378
:103B80008E838D8581110BC0CE010E94611581113C
:103B900006C0888D90E0019683709927888F0F5F0B
:103BA0001F4F9CCF8E819F8101979F838E838D8530
:103BB00081110BC0CE010E946115811106C0888D54
:103BC00090E0019683709927888F01501109AECF3C
:103BD000CF93DF93DC01ED91FC91119754960D90FA
:103BE000BC91A02D19968D919C918430910520F067
:103BF000079738F4349601C033968491DF91CF91C2
:103C000008953596FACFEF92FF920F931F93CF93BB
:103C1000DF93EC010E94E81D82FF67C08C899D89BB
:103C2000FC01E38CF48C45960E9476130E811F8173
:103C30008E0D9F2D911D8017910744F482E08B8B90
:103C4000E881F9813296E491E195EC87EC89FD8970
:103C5000E38CF48CCE010E947613800F912F911D7E
:103C60008E159F053CF483E08B8BE881F9813296B9
:103C7000E491EC87CE010E94E81D83FF2DC06B8983
:103C8000CE010E94BE1B882319F0CE010E9453155D
:103C90008B89823071F46E817F81615071094FEBA5
:103CA00050E0CE010E94A114811103C0CE010E94F8
:103CB00053158B89833081F4CE010E94E413BC013B
:103CC0006F5F7F4F4FEB50E0CE010E94A114811136
:103CD00003C0CE010E945315CE01DF91CF911F91F9
:103CE0000F91FF90EF900C94371CCE010E94E81DBD
:103CF00080FF0CC08B89823061F562E0CE010E94AA
:103D0000BE1B882301F183E08B8B1C86CE010E94B1
:103D1000E81D81FFE1CF8B89823091F508851985F7
:103D2000CE010E946613A801480F511D6E817F814C
:103D300061507109CE010E94A11481111BC083E062
:103D40008B8B1C86C9CFE881F9813296E491E1958D
:103D5000EC878B898330D1F663E0CE010E94BE1BD5
:103D6000882311F082E0D0CFE881F9813296E49186
:103D7000EC87CCCFE881F9813296E491E195EC872C
:103D80008B89833009F0A8CF08851985CE010E9460
:103D90006613080F111DCE010E94E413BC016F5F72
:103DA0007F4FA801CE010E94A114811102C082E0C0
:103DB000C7CFE881F9813296E491EC878DCF0F93DC
:103DC0001F93CF93DF93EC01F90181E08D833CE0F9
:103DD000309FC001319F900D1124798368835B83EC
:103DE0004A833E9FA0013F9F500D11245F834E8365
:103DF000998788879B878A871C861D8683E08B8BA3
:103E00001C82198ACE010E945D13853009F43FC0DF
:103E100050F4843071F18885998501979987888756
:103E20001C861D862AC08D3079F18E30A1F78E81D7
:103E30009F8106969F838E838885998504979987AD
:103E400088878C899D8986509D4F0E94F21325E0BA
:103E500030E040E050E00E94013262506C878C8973
:103E60009D8986509D4F0E94F213637061956D8706
:103E70001AC08CEF8C8782E08D87CE01DF91CF91C5
:103E80001F910F910C94031E1C868FE7F5CF8E8136
:103E90009F8106969F838E8388859985049799874D
:103EA00088871C861D868C899D8986509D4F0E941F
:103EB000F2132CE030E040E050E00E940132862F07
:103EC000880F880F680F645C6C83D7CF6F927F92E6
:103ED0008F929F92AF92BF92CF92DF92EF92FF921A
:103EE0000F931F93CF93DF93CDB7DEB7A8970FB68D
:103EF000F894DEBF0FBECDBF6C015C01CE01019610
:103F00003C01F0E0E0E0FE2ED501D3968C918111CA
:103F100031C010E089E18E9F50018F9FB00C1124B9
:103F2000C5018E968C0D9D1D0E94DF1EBFEFEB1606
:103F300059F0CA0CDB1CECE0EE9EC0011124D60146
:103F4000DD969C938E93DC978F2DA8960FB6F894F0
:103F5000DEBF0FBECDBFDF91CF911F910F91FF90BC
:103F6000EF90DF90CF90BF90AF909F908F907F9019
:103F70006F900895D6015B968D919C91D501D49652
:103F80008D909C908819990997FD3DC0D3018D9320
:103F90009C933196B9E1AB0EB11C82E0680E711CA6
:103FA000E431F10509F0AFCF9981FE01339681E04C
:103FB000F12CA191B1919A171B0614F49A2FF82EA7
:103FC0008F5F8431B1F78F2C912C10E089E1B82EEE
:103FD000C601FB9C800D911D11248E960E94DF1E50
:103FE0009FEFE91609F4B0CFB89CC001B99C900DC1
:103FF0001124C80ED91EACE0EA9EC0011124F601BE
:1040000095AF84AFA1CF919581959109BFCF2F92A4
:104010003F924F925F926F927F928F929F92AF9258
:10402000BF92CF92DF92EF92FF920F931F93CF93A5
:10403000DF93CDB7DEB728970FB6F894DEBF0FBE7B
:10404000CDBFF82EE091A603F091A703618572859C
:10405000482F50E09F0126503D4F38872F839B010A
:10406000240F351F23703327E20FF31F2281269F71
:10407000C001279F900D1124840F951FB0E0A0E090
:10408000EF81F88580839183A283B3838F2D63E0D2
:104090000E943232F8E19F9FC00111249C012C57ED
:1040A0003E4F3D832C8390E080E0FC01EE0FFF1F2C
:1040B000EC5DFD4F2C813D81E20FF31F11821082D8
:1040C00001968C30910589F78F8198850E94F213B3
:1040D00023E030E040E050E00E940132635F6F83F4
:1040E0003CE0F39E50011124F11009C0862F81504D
:1040F000990BAC0161E070E08CE00E943F141A82E1
:1041000019821B82712C1E82612C1FEFD12CC12CB5
:1041100045E0242E312C412C512C1F3F89F5611094
:1041200056C09E81911122C2C6010397069708F0DE
:1041300051C080917904F81608F04CC08091A60314
:104140009091A70386509D4F0E94F21327E030E024
:1041500040E050E00E940132672B682B692BD1F5BB
:104160008091A6039091A70386509D4F0E94F21361
:10417000A20191010E9401326983EF81EA8310E07C
:10418000898134E0839FF0011124EF5DFE4FE10F40
:10419000F11D80818823D9F0FA81F81B8F2FF1312E
:1041A000B0F4F601EE0FFF1FEC5DFD4F2C813D8159
:1041B000E20FF31F21E030E002C0220F331F8A9587
:1041C000E2F780819181822B932B918380833E81C2
:1041D0003111CCC1EF818E2F90E0F601EE0FFF1F61
:1041E000EC5DFD4F2C813D81E20FF31F2081318179
:1041F00041E050E0082E02C0440F551F0A94E2F738
:10420000242B352B01968031910591F73183208342
:10421000FF2009F4DBC180917904F81608F0D6C1BB
:104220001F3F09F0CAC08091A6039091A703865052
:104230009D4F0E94F2132AE030E040E050E00E94DF
:1042400001322091A6033091A703672B682B692BBD
:1042500009F0A0C0C90186509D4F0E94F21323E0CF
:1042600030E040E050E00E9401326E5F6E83712CBE
:10427000643009F4A6C080917B048A151B040CF0FD
:10428000F4C09F809A949A948FEF810F823060F5EA
:10429000398124E0329FF0011124EF5DFE4FE10FE0
:1042A000F11D80819A809A94981A8091A60390912A
:1042B000A70386509D4F0E94F213A20191010E9414
:1042C00001328091A6039091A703613009F083C069
:1042D000EE24EA94092D95012C0D3D1D47E650E290
:1042E00069EC70E20E94661F8091A6039091A7037B
:1042F00086509D4F0E94F21323E030E040E050E0F2
:104300000E940132672B682B692B09F0AEC08091A7
:10431000A6039091A703FC012185328508E2243091
:10432000310528F00EE12730310508F403E286500C
:104330009D4F0E94F213202F30E050E040E00E9499
:1043400001326E3171058105910508F08EC064550A
:104350007E4DFB010C9466320122012201220122D2
:104360000122012201220122012201221222122213
:1043700012221222122212221D221D221D222B2263
:104380002B222B222B222B222B222B223C223C22A3
:10439000A722A722C90186509D4F0E94F213A201B5
:1043A00091010E940132672B682B692B41F43F81F8
:1043B0003F3061F03F5F3F83712C1E825CCF73946E
:1043C000FCCF81E08B8394E09E8355CF712C1E82BD
:1043D000EEE0EF8350CF86509D4F0E94F213637042
:1043E000772788279927672B682B692B09F07CCFC3
:1043F000492D50E0B5016C0D7D1D8EE00E943F14EB
:1044000073CFEE24EA94092D95012C0D3D1D47E64E
:1044100050E269EC70E28091A6039091A7030E949C
:10442000661F23C0EE24EA94092D95012C0D3D1D35
:104430004FEF5FE161E670E2EECFF6E0FF15A8F422
:10444000EE24EA94092D95012C0D3D1D47EC5FE10A
:1044500069EF7FE1E0CF2F812150330BA901B50136
:104460006C0D7D1D8EE00E943F141F3F99F11F5F70
:10447000143081F51FEF2EC031E03715B0F71F3F24
:10448000B1F78091A6039091A703FC0121853285A5
:104490002150310905E02A30310520F4295E3E4FD4
:1044A000F901008186509D4F0E94F213202F30E0C9
:1044B00050E040E00E940132672B682B692B51F4D9
:1044C0002F812150330BA901B5016C0D7D1D8FE0AB
:1044D0000E943F149FEFC91AD90AECE0CE16D1040E
:1044E00009F01BCE80917904F81211C02F81215060
:1044F000330BA901B501675F7F4FE091A603F091EF
:10450000A703818580FF64C08AE00E943F148091E8
:104510007B048A151B0414F4A0927B0428960FB622
:10452000F894DEBF0FBECDBFDF91CF911F910F91E9
:10453000FF90EF90DF90CF90BF90AF909F908F90C3
:104540007F906F905F904F903F902F90089538E04C
:104550003F1508F08ACFEE24EA9402E095012C0D75
:104560003D1D4FE75FE161EC7FE155CF8E818150CA
:104570008E83612C811102C06B801B828091A60307
:104580009091A70386509D4F0E94F213A2019101C2
:104590000E940132672B682B692B09F066CF80904F
:1045A000A6039090A703C40186509D4F0E94F2136A
:1045B0006370EF80E394E61A00E195012C0D3D1D38
:1045C00047E15FE169E77FE1C40129CF1E824DCF5A
:1045D0008BE09BCF2091790430E02F5F3F4F90E933
:1045E000929FA001939F500D112441585109209191
:1045F0007A0430E02F5F3F4F80EC829FB001839FB1
:10460000700D11246154710980917804E82FF0E055
:10461000899FC001112420919F013091A001205455
:1046200031093093900120938F01A091A101B091A5
:10463000A20119976A177B076CF1B0939201A093BE
:1046400091014217530724F45093900140938F0136
:1046500020918F01309190012817390724F490930D
:10466000900180938F01A091A603B091A7035B9660
:104670008D919C9160E970E00E945232CB010197CC
:1046800097FD0DC0E817F90754F4809378048E5F06
:104690000C9407207093920160939101D2CF0895FA
:1046A000FF920F931F93CF93DF9310927704109292
:1046B000780410927B04E0EFF3E08FEF9FEF91839B
:1046C000808393838283399624E0E737F207B9F732
:1046D0000EE210E0D0E0C0E089E1F82E8091A60360
:1046E0009091A703FC9EF001FD9EF00D1124E80FB0
:1046F000F91F13AA800F911F0E944E132196075E87
:104700001F4FC431D10551F7E091A603F091A703E3
:1047100021853285CF0186509D4FA90143705527D1
:10472000E40FF51F6281629FA001639F500D112469
:1047300070E060E0FC0140835183628373830E94D8
:10474000F213E091A603F091A7032185328550E092
:1047500040E00E940132645F6093790480E00E942F
:10476000072081E00E94072082E00E9407208091BC
:104770008D0180FD32C088E590E021E13FE130937A
:104780009A01209399012FEA3EE130939C012093F6
:104790009B0128E130E03093A00120939F0190938A
:1047A000A2018093A1019093A4018093A301109290
:1047B000A5011092A60183E08093AC0110929D01A7
:1047C0001092AA0189E991E00E946115882339F0CD
:1047D00089E991E00E94371CF5CF80E0CDCF0E949F
:1047E000EA2286E0809384018CE180938501DF9149
:1047F000CF911F910F91FF90089520E043E555E17F
:104800006CE070E084E090E00E94361320E043E525
:1048100055E16CE070E089E690E00E94361320E0FC
:1048200043E555E16BE170E086EF9FEF0E943613A0
:1048300020E043E555E16BE170E087E790E00E94FE
:10484000361320E043E555E169E270E084E090E052
:104850000E94361320E043E555E169E270E089E605
:1048600090E00E94361320918201309183012F70D5
:1048700033272695269541E255E16BE170E08BE008
:1048800090E00E94361320918201309183012F70B5
:1048900033272695269541E255E16BE170E08FE6DE
:1048A00090E00C9436130F931F93CF93DF938C01FA
:1048B000EB010E94EB318883C80101960E94EB3125
:1048C0008983CE01DF91CF911F910F910895FF92BF
:1048D0000F931F93CF93DF93EC01F62E088119817C
:1048E000C8010E94EB31F81621F06F2DC8010E941B
:1048F000F331CE01DF91CF911F910F91FF90089579
:10490000CF93DF9300D0CDB7DEB79A838983CE01F2
:1049100001960E9467240F900F90DF91CF91089528
:10492000EF92FF920F931F93CF93DF9300D0CDB7F9
:10493000DEB78C017B019A838983FB016081CE0104
:1049400001960E9467240F5F1F4F1A830983F701A6
:104950006181CE0101960E946724C7010F900F90DC
:10496000DF91CF911F910F91FF90EF900895BF922B
:10497000CF92DF92EF92FF920F931F93CF93DF932B
:1049800000D0CDB7DEB7B82E04E012E0F12CE12C58
:10499000CC24C394D12C00FF03C0CC24CA94DC2CBB
:1049A000C8010E94EB31282F2C9DC0012D9D900D38
:1049B0001124E80EF91E0F5F1F4F013282E0180725
:1049C00039F7BB2049F0FA82E982BE016F5F7F4F61
:1049D00081E292E00E949024C7010F900F90DF9136
:1049E000CF911F910F91FF90EF90DF90CF90BF90EC
:1049F00008950F931F93CF93DF9300D000D0CDB7CE
:104A0000DEB7182F84E092E00E94EB31082F85E09A
:104A100092E00E94EB31013429F4843519F411231A
:104A200009F456C061E484E092E00E94802464E5C9
:104A300085E092E00E9480248EE190E09C838B834D
:104A400086E092E09A83898361E0CE0101960E941C
:104A5000672407E012E060E0C8010E9480240F5F35
:104A60001F4F0C3082E01807B1F78B819C810A97A9
:104A70009C838B83BE016D5F7F4FC8010E94902491
:104A800060E0C80102960E94802460E0C80103969D
:104A90000E94802460E0C80104960E94802460E0A7
:104AA000C80105960E94802460E0C80106960E9415
:104AB0008024095F1F4F013282E01807B1F60F9082
:104AC0000F900F900F90DF91CF911F910F9108954C
:104AD0001A82198280E00E94B7248C01BE016F5FA8
:104AE0007F4F81E292E00E94532489819A8180174E
:104AF000910729F381E00E94F924E1CF0F920FB6CC
:104B00008F939F93EF93FF93809179018D5F8D3702
:104B100008F08D5780937901EAE7F1E080818E4FAC
:104B2000808391819F4F918382818F4F8283838184
:104B30008F4F8383EEE7F1E080818F5F80838181F7
:104B40008F4F818382818F4F828383818F4F8383B5
:104B50008FB18F6066991C9B88278F3681F4809176
:104B60007801981B963068F0E0E0F8E087E78083F2
:104B7000818388E180936000F0936000FFCF909381
:104B80007801FF91EF919F918F910FBE0F90189533
:104B90001F920F920FB60F9211242F933F934F93B2
:104BA0005F936F937F938F939F93AF93BF93CF93B5
:104BB000EF93FF9380917701882379F080917601BC
:104BC00081110BC080917501811107C09091740112
:104BD00080910000892780930000809173018823D1
:104BE00009F4AAC080916F0190917001A0917101A8
:104BF000B0917201892B8A2B8B2B09F49DC0809177
:104C00006F0190917001A0917101B09172010197B3
:104C1000A109B10980936F0190937001A093710174
:104C2000B0937201892B8A2B8B2B09F085C0C1E0D0
:104C3000E0916D01F0916E01AF014F5F5F4F5093B6
:104C40006E0140936D012491822F807F803829F579
:104C50002F70E22FF0E0EB5EFE4F8081813059F043
:104C6000833031F710927701809176018111E0CF86
:104C7000809174010BC0809169018111D9CF80911D
:104C80006F008D7F80936F0080916801909100008C
:104C90008095892380930000CBCF803991F4F0E098
:104CA000E0E009958C2780937501E0916D01F0910A
:104CB0006E01CF01019690936E0180936D01E49196
:104CC000B7CF87FD4BC03296F0936E01E0936D0134
:104CD000FA014491A0916B01B0916C01322F242F05
:104CE0000E9423326C507E4F8F4F9F4F28EE33E04F
:104CF00040E050E00E94013220936F013093700138
:104D0000409371015093720180916F0190917001F5
:104D1000A0917101B0917201892B8A2B8B2B61F4C8
:104D200081E090E0A0E0B0E080936F01909370018B
:104D3000A0937101B0937201FF91EF91CF91BF9158
:104D4000AF919F918F917F916F915F914F913F9123
:104D50002F910F900FBE0F901F901895803E29F451
:104D600010926E0110926D0163CF803F09F060CF09
:104D700010927301E1CF1F920F920FB60F92112480
:104D80008F939F93AF93BF9380916901882309F418
:104D90004EC08091640190916501A0916601B0912F
:104DA0006701892B8A2B8B2B81F19091680180916F
:104DB0000000892780930000809164019091650133
:104DC000A0916601B0916701181619061A061B0614
:104DD0009CF48091640190916501A0916601B0916D
:104DE00067010197A109B10980936401909365015E
:104DF000A0936601B0936701BF91AF919F918F918E
:104E00000F900FBE0F901F90189510927601109280
:104E1000690180916F008D7F80936F0080916801A0
:104E2000909100008095892380930000E5CF8091C8
:104E300075018111E1CF909168018091000089276F
:104E4000F3CFEF92FF920F931F93CF93DF931092C4
:104E5000A8011092A701E4E8F1E015AE14AE79962E
:104E600063E0E837F607C9F784E891E0109282041E
:104E70001092830410928404E5E8F4E024EBDF014F
:104E80001D922A95E9F79093AE018093AD0190931E
:104E9000A7038093A60383E691E090937D0480931B
:104EA0007C04C2EBD1E024E8E22E21E0F22E8C015A
:104EB000FD8AEC8A1F8B0E8B1D82CE010E944E1341
:104EC0006996B3E0C63ADB0799F7E0EFF3E044E810
:104ED00051E023E631E08FEF9FEF56834583308723
:104EE00027839183808393838283399664E0E737B5
:104EF000F60799F710925E018FEF80935F01109291
:104F00006001DF91CF911F910F91FF90EF90089575
:104F1000CDB7DEB76897DEBFCDBF91E09093E000DC
:104F20001092E2001092E10080E28093D80010928B
:104F3000D70080916500806880936500789483E055
:104F400084BD83E085BD90936E00E1E8F0E083E0EE
:104F50008083E0E881E08083E1E983E08083E0E929
:104F600081E08083E1EC87E08083E3EC81E0808373
:104F7000E0EC82E08083E2EC81E08083EAE787E096
:104F800080838068808381EC80937C0081EF85B989
:104F900087EE84B982E38BB982EF8AB9769A6E98EC
:104FA00080EF81BB10BA80E58CBD9DBD85E00E947D
:104FB00043135F9A85E00E9443135C98EEE9F8E0A2
:104FC00085918EBD00000DB407FEFDCFEB3AC1F711
:104FD0005C9A81E88093640081E08093650081E2BF
:104FE000809300010E94461387FF15C05C9885EAF4
:104FF0008EBD00000DB407FEFDCF5C9A2E982F9851
:105000002D988091640080628093640081E083BF6A
:10501000889513BEFCCF0E94461382FF37C02D989F
:105020000E94461384788438A1F42D9A88EC0E945B
:1050300043132F986FEF82E090E00E94802484EF6A
:1050400091E00E94E3122F9A0E94461384788438DC
:10505000D9F30E94461384718431A1F42D9A88EC0F
:105060000E9443132E9860E082E090E00E9480242A
:1050700084EF91E00E94E3122E9A0E9446138471FD
:105080008431D9F388EC0E944313C5CF2D9A80E078
:105090000E94F9249E012F5F3F4F2901AE01495F15
:1050A0005F4F5D8B4C8BDD24D394FF24F39402E897
:1050B00011E080914501882319F010924501F9CF44
:1050C00090917A0180914601592F581B852F20918C
:1050D0000001521738F48F5F821758F7D3BE8895B6
:1050E00013BEE7CFF092450190934601F80180810D
:1050F00091810196808391838091390580933A054F
:105100000E944613E82E80933905E0915601EE3057
:1051100080F6F0E0E257F74D0C9466329C289F2809
:10512000DC28DF284F295829042A232A4C2B852BD9
:105130008C2EEB2FC530C53081E0809356010E9444
:10514000A312882319F082E08093560120E04BE1FE
:1051500054E160E170E080E290E00E9436138091BB
:1051600082019091830160E370E00E943E328831B9
:1051700020F48C3098F081E312C08432D8F481E5B9
:105180008093EF06807A31F485EA8093E80685E91A
:105190008093E90680E00E94AA1285CF81E11092F7
:1051A00016071092170710921807109219071092FD
:1051B0001A07E6CF81E9E4CF83E0809356010E948D
:1051C000A312182F20E040EF51E164E070E088E185
:1051D00090E00E94361320E048EE51E170E060E07C
:1051E00083E290E00E941C1320E048EE51E170E061
:1051F00060E08AE590E00E941C130E94FD23F0907D
:10520000550183E290E0FF2011F081E490E020E07E
:105210004AEC51E16BE370E00E94361300915001BB
:10522000202F46EB51E168E370E087E790E00E94B1
:105230003613812F8C7081F0F11028C080915301BA
:10524000882321F086E08093560106C084E0809395
:10525000560181E08093530117FD02C014FF0CC07A
:105260000023B1F0109250013E983F986091500198
:1052700082E090E00E94802415FD1092550116FFF7
:1052800003C081E08093550181E085CF8DE0DBCFC5
:105290003E9A3F9A81E08093500161E0E9CF1092FD
:1052A0005101109252011092540185E080935601F1
:1052B00020E048E951E161E070E081E090E00E9487
:1052C000361322E048E951E166E370E081E090E0C6
:1052D0000E94361321E048E951E161E070E088E77F
:1052E00090E00E94361323E048E951E166E370E064
:1052F00088E790E00E9436134DE761E070E081E0BE
:1053000090E00E94B9124DE76DE370E081E090E01B
:105310000E94B9124AE76FE370E083E090E00E94D8
:10532000B912F12C00E0E12C5AE0D52E2091520167
:1053300010915101812F90E0F21668F5880F991FA6
:10534000FC01E15FFE4F0190F081E02DEF0DF11DBA
:10535000E491E032C8F0E032D9F02AE1E13231F0F4
:1053600020F0E1562E2FEA3108F02BE1ED9CB00140
:1053700011246D5F7F4F802F90E046E251E1069649
:105380000E943613E5E005C0E394F3940E2FCECFD0
:10539000E4E0E00FFACF845F9E4FFC01008120170C
:1053A00038F48091820180FF03C02F5F2093520167
:1053B0000E94A3128C7009F467CF809154019091E0
:1053C0005201091310C0811110C01F5F10935101C9
:1053D0001092520180915101833009F055CF86E03F
:1053E0008093560151CF882319F01F5F109351010C
:1053F00081E080935401E0915101F0E0E45FFE4FC1
:10540000808180935201E6CF07E411E037E0E32E7C
:1054100032E0F32EC7010E94EB31F80181938F0136
:10542000FFEFEF1AFF0A2CE0E21622E0F20691F7F6
:1054300010924F0110924E0110924C0110924D01AA
:1054400087E0809356010E94FD2320E04EEA50E160
:1054500068E070E082E290E00E94361320E048E9C4
:1054600051E165E170E088E190E00E94361322E0AE
:1054700048E951E16FE270E088E190E00E94361364
:1054800021E048E951E165E170E080E690E00E94AA
:10549000361323E048E951E16FE270E080E690E0E6
:1054A0000E94361348E465E170E088E190E00E94D4
:1054B000B91248E466E370E088E190E00E94B91216
:1054C0004BE468E370E08AE190E00E94B91297E44F
:1054D000E92E91E0F92E0EE110E0D12C20E1C22E50
:1054E00080914C01D812C2C080914D01882309F4EB
:1054F000BDC02C2D281B44E15FE06FE170E0C801C6
:105500000E943613D394025F1F4FFFEFEF1AFF0A7A
:1055100025E0D212E5CF80914C011EE0819FC001B1
:10552000112420E044EE5EE06AE170E081960E9482
:105530001C1380914C01819FC001112421E044EE95
:105540005EE06FE270E081960E941C130E94A3123D
:10555000182F80914D01811185C017FF13C08091D4
:105560004C0190E0FC01E95BFE4F2081253009F001
:105570008EC010826081895F9D4F0E94802481E1EE
:1055800080934D0114FF13C080914C0190E0FC0109
:10559000E95BFE4F208121117DC025E020836081E1
:1055A000895F9D4F0E94802481E180934D0115FF0A
:1055B00007C080914C01882319F0815080934C01E1
:1055C00016FF07C080914C01843018F48F5F8093E0
:1055D0004C011C7009F441C04091470120E135E0C5
:1055E000429FC001439F900D11242091480138ED46
:1055F000239F800D911D11242091490144E2249F95
:10560000800D911D112420914A01FC0146E0249F48
:10561000E00DF11D112480914B018E0F9F2F911DE4
:105620000196092E000CAA0BBB0B80937E0490936D
:105630007F04A0938004B093810406E811E08EE714
:1056400094E00E94F213F80161938F01F1E00A38AF
:105650001F07A9F788E08093560180914D018823A8
:1056600009F412CE815080934D010ECE20E044E12A
:105670005FE06FE170E0C8010E943613F7012081FE
:1056800044EF5EE063E270E0C801039639CF2F5F1C
:10569000208370CF215082CF8EEF9FEF90938C01AB
:1056A00080938B0181E080938A0181E090E0909368
:1056B0008E0180938D0181E19FE190939A01809307
:1056C00099018FEA9EE190939C0180939B0188E170
:1056D00090E09093A00180939F011092A2011092FC
:1056E000A1011092A4011092A3011092A5011092A1
:1056F000A60183E08093AC0110929D011092AA0153
:105700000E94502389E08093560110917A040E94F0
:10571000A312F82E80918401813009F070C090911D
:10572000840491116CC0F3FE58C0909183049827B3
:1057300090938304909183049111A6C1212F30E0AE
:105740002F5F3F4F90EC929F6001939FD00C1124EC
:1057500021E0C21AD10810928404843008F052C0AB
:10576000823008F062C0813009F482C000EF13E09B
:105770007CE0E72EAA24AA94BA2C882483943F2D97
:105780003870F32EFAE07F2EA2E06A2EB5E09B2E51
:1057900084E0382EF8018081918197FDABC089E9C2
:1057A00091E00E94851329833A834B835C836D8348
:1057B0007E83F80180819181E89E9001E99E300D01
:1057C000112484818A3038F08C3008F463C094E16D
:1057D0008F3009F463C09CE061C0E3FE10C090917B
:1057E00082049F5F913218F490938204A3CF1092A9
:1057F000820492E090935601109283049BCF109202
:10580000820498CF8430E9F1863009F0AFCF8091DF
:105810008501882309F4AACF8150809385018111E5
:10582000A5CF81E080938401A1CF80918501209153
:10583000A1013091A201813030F0803370F021500D
:105840003109833360F02091A1013091A201C21689
:10585000D30654F41092850189CF2E5F3F4F3093C9
:10586000A2012093A101EFCF8150809385017ECFCB
:105870000E94671589E991E00E94371C0E94EA2284
:1058800075CF0E94671589E991E00E94371C0E943C
:10589000EA22BDCF225031099CE06CE049815A8157
:1058A000640F752F711D2617370724F5290F311D39
:1058B00042175307FCF4F80142815381E49E9001A2
:1058C000E59E300D11244B815C816E81640F752F34
:1058D000711D2617370774F4245F3F4F4217530793
:1058E0004CF48E3009F414C108F0F6C08A508230AE
:1058F00008F409C1075F1F4FF4E007371F0709F0DD
:1059000049CF89E991E00E946115F82E882331F092
:10591000F090A601F094FF1CFF24FF1C02EB11E0A5
:10592000AA24AA94BA2C92E0792E22E3922E34E093
:10593000632E45E1E42E5DEF252E68EF362EF8014B
:105940008189882379F08150818B81110BC0158268
:1059500011821082138AB782A682B186A08614862D
:1059600015861482F8018581882309F47BC0C8015B
:105970000E945D13853019F08D3009F0D7C0C80141
:105980000E94371C809184018250823008F46AC0E2
:10599000F8018581882309F465C089E991E00E94B6
:1059A00085132C873D874E875F87688B798BC8016D
:1059B0000E94851329833A834B835C836D837E83A6
:1059C0004C855D8589819A812889240F352F311D69
:1059D000821793070CF046C0860F911D4817590790
:1059E0000CF040C04E855F858B819C812989240FF6
:1059F000352F311D82179307ACF5870F911D48177E
:105A0000590784F5C8010E945D13882EF5E08F17B1
:105A100009F4A1C02EE0821709F4B3C0F801858112
:105A2000882301F1FF2009F4D6C0FDE08F12BDC02C
:105A3000809184018430B1F080918A01882319F02B
:105A4000815080938A0180918A018111A9C080913F
:105A50008501811107C07092840190928501F8013F
:105A60001582E18A075E1F4FF3E0063A1F0709F02F
:105A700066CF90918401943008F0BFC0923008F056
:105A800006C1913009F4EBC00E94BB1680918401DD
:105A9000833069F4EE24E3940EE01BE020E048EF4D
:105AA0005CE06FE070E08FE090E00E949310009166
:105AB0008D0110918E010170112781E00E94AA12C0
:105AC000012B09F4F0CAEFE6F5E08FEF819359E07E
:105AD000EB33F507D9F7E7CA8F3009F00BCF809287
